{
  "_format": "hh-sol-artifact-1",
  "contractName": "newContract",
  "sourceName": "contracts/contract.sol",
  "abi": [
    {
      "inputs": [
        {
          "internalType": "string",
          "name": "_name",
          "type": "string"
        }
      ],
      "stateMutability": "nonpayable",
      "type": "constructor"
    },
    {
      "inputs": [],
      "name": "returnName",
      "outputs": [
        {
          "internalType": "string",
          "name": "",
          "type": "string"
        }
      ],
      "stateMutability": "view",
      "type": "function"
    },
    {
      "inputs": [],
      "name": "s_address",
      "outputs": [
        {
          "internalType": "address",
          "name": "",
          "type": "address"
        }
      ],
      "stateMutability": "view",
      "type": "function"
    },
    {
      "inputs": [],
      "name": "setaddress",
      "outputs": [],
      "stateMutability": "nonpayable",
      "type": "function"
    }
  ],
  "bytecode": "0x60806040523480156200001157600080fd5b506040516200084938038062000849833981810160405281019062000037919062000343565b6200006b7f639446bef1b30dc79e688371ad3dc82f03c46e0920f0bbde10f709bc30595ba660001b620000f360201b60201c565b6200009f7fb86a10595796d993c1f18076c0c81bbeced0e05360a87befd97bc7d68589c7f960001b620000f360201b60201c565b620000d37f248301aafe3b8a42d27b32b4a44bdd2e9da86acba86dd4b390f98bbc718698a060001b620000f360201b60201c565b8060009080519060200190620000eb929190620000f6565b5050620003f9565b50565b8280546200010490620003c3565b90600052602060002090601f01602090048101928262000128576000855562000174565b82601f106200014357805160ff191683800117855562000174565b8280016001018555821562000174579182015b828111156200017357825182559160200191906001019062000156565b5b50905062000183919062000187565b5090565b5b80821115620001a257600081600090555060010162000188565b5090565b6000604051905090565b600080fd5b600080fd5b600080fd5b600080fd5b6000601f19601f8301169050919050565b7f4e487b7100000000000000000000000000000000000000000000000000000000600052604160045260246000fd5b6200020f82620001c4565b810181811067ffffffffffffffff82111715620002315762000230620001d5565b5b80604052505050565b600062000246620001a6565b905062000254828262000204565b919050565b600067ffffffffffffffff821115620002775762000276620001d5565b5b6200028282620001c4565b9050602081019050919050565b60005b83811015620002af57808201518184015260208101905062000292565b83811115620002bf576000848401525b50505050565b6000620002dc620002d68462000259565b6200023a565b905082815260208101848484011115620002fb57620002fa620001bf565b5b620003088482856200028f565b509392505050565b600082601f830112620003285762000327620001ba565b5b81516200033a848260208601620002c5565b91505092915050565b6000602082840312156200035c576200035b620001b0565b5b600082015167ffffffffffffffff8111156200037d576200037c620001b5565b5b6200038b8482850162000310565b91505092915050565b7f4e487b7100000000000000000000000000000000000000000000000000000000600052602260045260246000fd5b60006002820490506001821680620003dc57607f821691505b60208210811415620003f357620003f262000394565b5b50919050565b61044080620004096000396000f3fe608060405234801561001057600080fd5b50600436106100415760003560e01c80635ea5cabe14610046578063936651e81461006457806395a75cba1461006e575b600080fd5b61004e61008c565b60405161005b919061032b565b60405180910390f35b61006c6101a2565b005b610076610269565b604051610083919061038e565b60405180910390f35b60606100ba7fec42688cb4fe52fccd44987a6fca8129661d5fca08e4b02945be0540cab6936d60001b61028f565b6100e67f972c207b91c75813bf6137005dbd6927eb902c229c393e8327af3f5f3447db1660001b61028f565b6101127f611e3325066b27525771f99ab8f084d2e62d803e238bb22c1c894545d64a97a460001b61028f565b6000805461011f906103d8565b80601f016020809104026020016040519081016040528092919081815260200182805461014b906103d8565b80156101985780601f1061016d57610100808354040283529160200191610198565b820191906000526020600020905b81548152906001019060200180831161017b57829003601f168201915b5050505050905090565b6101ce7ff8246834394bd9a18e400bc23cd390411d657f1e0762987d1b5a6a59e1b1fa6e60001b61028f565b6101fa7fc072508b0b768e29151ca2ac8c6681478c33c23356ada5d71343977e8b90d9b060001b61028f565b6102267f10b26144b94cd0f5848472ef376829bfa2f37b29332c7daee949a0fa3cbc838960001b61028f565b33600160006101000a81548173ffffffffffffffffffffffffffffffffffffffff021916908373ffffffffffffffffffffffffffffffffffffffff160217905550565b600160009054906101000a900473ffffffffffffffffffffffffffffffffffffffff1681565b50565b600081519050919050565b600082825260208201905092915050565b60005b838110156102cc5780820151818401526020810190506102b1565b838111156102db576000848401525b50505050565b6000601f19601f8301169050919050565b60006102fd82610292565b610307818561029d565b93506103178185602086016102ae565b610320816102e1565b840191505092915050565b6000602082019050818103600083015261034581846102f2565b905092915050565b600073ffffffffffffffffffffffffffffffffffffffff82169050919050565b60006103788261034d565b9050919050565b6103888161036d565b82525050565b60006020820190506103a3600083018461037f565b92915050565b7f4e487b7100000000000000000000000000000000000000000000000000000000600052602260045260246000fd5b600060028204905060018216806103f057607f821691505b60208210811415610404576104036103a9565b5b5091905056fea264697066735822122013cb224f51868d58b030bea082234608af17b23bf60f8cd205fd463e8262f01c64736f6c634300080c0033",
  "linkReferences": {},
  "deployedLinkReferences": {}
}